{
    "_format": "hh-sol-artifact-1",
    "contractName": "SoftwareRegistry",
    "sourceName": "contracts/SoftwareRegistry.sol",
    "abi": [
        {
            "anonymous": false,
            "inputs": [
                {
                    "indexed": true,
                    "internalType": "address",
                    "name": "_owner",
                    "type": "address"
                },
                {
                    "indexed": false,
                    "internalType": "bytes32",
                    "name": "_hash",
                    "type": "bytes32"
                },
                {
                    "indexed": false,
                    "internalType": "uint256",
                    "name": "_timestamp",
                    "type": "uint256"
                }
            ],
            "name": "NewRegistration",
            "type": "event"
        },
        {
            "anonymous": false,
            "inputs": [
                {
                    "indexed": true,
                    "internalType": "address",
                    "name": "from",
                    "type": "address"
                },
                {
                    "indexed": true,
                    "internalType": "address",
                    "name": "to",
                    "type": "address"
                },
                {
                    "indexed": false,
                    "internalType": "uint256",
                    "name": "recordIndex",
                    "type": "uint256"
                }
            ],
            "name": "OwnershipTransferred",
            "type": "event"
        },
        {
            "inputs": [
                {
                    "internalType": "bytes32",
                    "name": "combinatedFilesHash",
                    "type": "bytes32"
                },
                {
                    "internalType": "string",
                    "name": "ipfsCid",
                    "type": "string"
                },
                {
                    "internalType": "string",
                    "name": "authorName",
                    "type": "string"
                },
                {
                    "internalType": "string",
                    "name": "authorEmail",
                    "type": "string"
                }
            ],
            "name": "createRecord",
            "outputs": [],
            "stateMutability": "nonpayable",
            "type": "function"
        },
        {
            "inputs": [
                {
                    "internalType": "bytes32",
                    "name": "sha256Hash",
                    "type": "bytes32"
                }
            ],
            "name": "getRecordByHash",
            "outputs": [
                {
                    "components": [
                        {
                            "internalType": "address",
                            "name": "owner",
                            "type": "address"
                        },
                        {
                            "internalType": "bytes32",
                            "name": "sha256Hash",
                            "type": "bytes32"
                        },
                        {
                            "internalType": "string",
                            "name": "ipfsCid",
                            "type": "string"
                        },
                        {
                            "internalType": "string",
                            "name": "authorName",
                            "type": "string"
                        },
                        {
                            "internalType": "string",
                            "name": "authorEmail",
                            "type": "string"
                        },
                        {
                            "internalType": "uint256",
                            "name": "blockTimestamp",
                            "type": "uint256"
                        }
                    ],
                    "internalType": "struct SoftwareRegistry.Record",
                    "name": "",
                    "type": "tuple"
                }
            ],
            "stateMutability": "view",
            "type": "function"
        },
        {
            "inputs": [
                {
                    "internalType": "address",
                    "name": "ownerAddress",
                    "type": "address"
                }
            ],
            "name": "getRecordsByOwner",
            "outputs": [
                {
                    "components": [
                        {
                            "internalType": "address",
                            "name": "owner",
                            "type": "address"
                        },
                        {
                            "internalType": "bytes32",
                            "name": "sha256Hash",
                            "type": "bytes32"
                        },
                        {
                            "internalType": "string",
                            "name": "ipfsCid",
                            "type": "string"
                        },
                        {
                            "internalType": "string",
                            "name": "authorName",
                            "type": "string"
                        },
                        {
                            "internalType": "string",
                            "name": "authorEmail",
                            "type": "string"
                        },
                        {
                            "internalType": "uint256",
                            "name": "blockTimestamp",
                            "type": "uint256"
                        }
                    ],
                    "internalType": "struct SoftwareRegistry.Record[]",
                    "name": "",
                    "type": "tuple[]"
                }
            ],
            "stateMutability": "view",
            "type": "function"
        },
        {
            "inputs": [
                {
                    "internalType": "uint256",
                    "name": "recordIndex",
                    "type": "uint256"
                },
                {
                    "internalType": "address",
                    "name": "newOwner",
                    "type": "address"
                }
            ],
            "name": "transferOwnership",
            "outputs": [],
            "stateMutability": "nonpayable",
            "type": "function"
        }
    ],
    "bytecode": "0x608060405234801561001057600080fd5b50611c7b806100206000396000f3fe608060405234801561001057600080fd5b506004361061004c5760003560e01c8063111c4d661461005157806329507f731461006d57806330287e9214610089578063552d7105146100b9575b600080fd5b61006b60048036038101906100669190610f96565b6100e9565b005b610087600480360381019061008291906110e5565b6103af565b005b6100a3600480360381019061009e9190611125565b610751565b6040516100b09190611295565b60405180910390f35b6100d360048036038101906100ce91906112b7565b610a15565b6040516100e0919061143d565b60405180910390f35b6000602060ff1611610130576040517f08c379a0000000000000000000000000000000000000000000000000000000008152600401610127906114bc565b60405180910390fd5b6000825111610174576040517f08c379a000000000000000000000000000000000000000000000000000000000815260040161016b9061154e565b60405180910390fd5b60008151116101b8576040517f08c379a00000000000000000000000000000000000000000000000000000000081526004016101af906115e0565b60405180910390fd5b600042905060008080549050905060006040518060c001604052803373ffffffffffffffffffffffffffffffffffffffff168152602001888152602001878152602001868152602001858152602001848152509050600081908060018154018082558091505060019003906000526020600020906006020160009091909190915060008201518160000160006101000a81548173ffffffffffffffffffffffffffffffffffffffff021916908373ffffffffffffffffffffffffffffffffffffffff16021790555060208201518160010155604082015181600201908161029f919061180c565b5060608201518160030190816102b5919061180c565b5060808201518160040190816102cb919061180c565b5060a082015181600501555050600160003373ffffffffffffffffffffffffffffffffffffffff1673ffffffffffffffffffffffffffffffffffffffff1681526020019081526020016000208290806001815401808255809150506001900390600052602060002001600090919091909150558160026000898152602001908152602001600020819055503373ffffffffffffffffffffffffffffffffffffffff167f439ad6d468860d694b69a0105402c08014e343384a79c24086aebc1a3994ff63888560405161039e9291906118fc565b60405180910390a250505050505050565b60008054905082106103f6576040517f08c379a00000000000000000000000000000000000000000000000000000000081526004016103ed90611971565b60405180910390fd5b6000828154811061040a57610409611991565b5b906000526020600020906006020160000160009054906101000a900473ffffffffffffffffffffffffffffffffffffffff1673ffffffffffffffffffffffffffffffffffffffff163373ffffffffffffffffffffffffffffffffffffffff16146104a9576040517f08c379a00000000000000000000000000000000000000000000000000000000081526004016104a090611a32565b60405180910390fd5b600073ffffffffffffffffffffffffffffffffffffffff168173ffffffffffffffffffffffffffffffffffffffff1603610518576040517f08c379a000000000000000000000000000000000000000000000000000000000815260040161050f90611a9e565b60405180910390fd5b806000838154811061052d5761052c611991565b5b906000526020600020906006020160000160006101000a81548173ffffffffffffffffffffffffffffffffffffffff021916908373ffffffffffffffffffffffffffffffffffffffff1602179055506000600160003373ffffffffffffffffffffffffffffffffffffffff1673ffffffffffffffffffffffffffffffffffffffff168152602001908152602001600020905060005b818054905081101561068057838282815481106105e2576105e1611991565b5b90600052602060002001540361066d5781600183805490506106049190611aed565b8154811061061557610614611991565b5b906000526020600020015482828154811061063357610632611991565b5b90600052602060002001819055508180548061065257610651611b21565b5b60019003818190600052602060002001600090559055610680565b808061067890611b50565b9150506105c2565b50600160008373ffffffffffffffffffffffffffffffffffffffff1673ffffffffffffffffffffffffffffffffffffffff1681526020019081526020016000208390806001815401808255809150506001900390600052602060002001600090919091909150558173ffffffffffffffffffffffffffffffffffffffff163373ffffffffffffffffffffffffffffffffffffffff167fc13a1166d81cd3b0b352a367aebab95f3a6f6bc695fdab8e9a9d335239c3861b856040516107449190611b98565b60405180910390a3505050565b610759610db7565b600060026000848152602001908152602001600020549050600081116107b4576040517f08c379a00000000000000000000000000000000000000000000000000000000081526004016107ab90611c25565b60405180910390fd5b60006001826107c39190611aed565b815481106107d4576107d3611991565b5b90600052602060002090600602016040518060c00160405290816000820160009054906101000a900473ffffffffffffffffffffffffffffffffffffffff1673ffffffffffffffffffffffffffffffffffffffff1673ffffffffffffffffffffffffffffffffffffffff1681526020016001820154815260200160028201805461085d9061162f565b80601f01602080910402602001604051908101604052809291908181526020018280546108899061162f565b80156108d65780601f106108ab576101008083540402835291602001916108d6565b820191906000526020600020905b8154815290600101906020018083116108b957829003601f168201915b505050505081526020016003820180546108ef9061162f565b80601f016020809104026020016040519081016040528092919081815260200182805461091b9061162f565b80156109685780601f1061093d57610100808354040283529160200191610968565b820191906000526020600020905b81548152906001019060200180831161094b57829003601f168201915b505050505081526020016004820180546109819061162f565b80601f01602080910402602001604051908101604052809291908181526020018280546109ad9061162f565b80156109fa5780601f106109cf576101008083540402835291602001916109fa565b820191906000526020600020905b8154815290600101906020018083116109dd57829003601f168201915b50505050508152602001600582015481525050915050919050565b60606000600160008473ffffffffffffffffffffffffffffffffffffffff1673ffffffffffffffffffffffffffffffffffffffff168152602001908152602001600020805480602002602001604051908101604052809291908181526020018280548015610aa257602002820191906000526020600020905b815481526020019060010190808311610a8e575b505050505090506000815167ffffffffffffffff811115610ac657610ac5610e6b565b5b604051908082528060200260200182016040528015610aff57816020015b610aec610db7565b815260200190600190039081610ae45790505b50905060005b8251811015610dac576000838281518110610b2357610b22611991565b5b6020026020010151905060008181548110610b4157610b40611991565b5b90600052602060002090600602016040518060c00160405290816000820160009054906101000a900473ffffffffffffffffffffffffffffffffffffffff1673ffffffffffffffffffffffffffffffffffffffff1673ffffffffffffffffffffffffffffffffffffffff16815260200160018201548152602001600282018054610bca9061162f565b80601f0160208091040260200160405190810160405280929190818152602001828054610bf69061162f565b8015610c435780601f10610c1857610100808354040283529160200191610c43565b820191906000526020600020905b815481529060010190602001808311610c2657829003601f168201915b50505050508152602001600382018054610c5c9061162f565b80601f0160208091040260200160405190810160405280929190818152602001828054610c889061162f565b8015610cd55780601f10610caa57610100808354040283529160200191610cd5565b820191906000526020600020905b815481529060010190602001808311610cb857829003601f168201915b50505050508152602001600482018054610cee9061162f565b80601f0160208091040260200160405190810160405280929190818152602001828054610d1a9061162f565b8015610d675780601f10610d3c57610100808354040283529160200191610d67565b820191906000526020600020905b815481529060010190602001808311610d4a57829003601f168201915b50505050508152602001600582015481525050838381518110610d8d57610d8c611991565b5b6020026020010181905250508080610da490611b50565b915050610b05565b508092505050919050565b6040518060c00160405280600073ffffffffffffffffffffffffffffffffffffffff16815260200160008019168152602001606081526020016060815260200160608152602001600081525090565b6000604051905090565b600080fd5b600080fd5b6000819050919050565b610e2d81610e1a565b8114610e3857600080fd5b50565b600081359050610e4a81610e24565b92915050565b600080fd5b600080fd5b6000601f19601f8301169050919050565b7f4e487b7100000000000000000000000000000000000000000000000000000000600052604160045260246000fd5b610ea382610e5a565b810181811067ffffffffffffffff82111715610ec257610ec1610e6b565b5b80604052505050565b6000610ed5610e06565b9050610ee18282610e9a565b919050565b600067ffffffffffffffff821115610f0157610f00610e6b565b5b610f0a82610e5a565b9050602081019050919050565b82818337600083830152505050565b6000610f39610f3484610ee6565b610ecb565b905082815260208101848484011115610f5557610f54610e55565b5b610f60848285610f17565b509392505050565b600082601f830112610f7d57610f7c610e50565b5b8135610f8d848260208601610f26565b91505092915050565b60008060008060808587031215610fb057610faf610e10565b5b6000610fbe87828801610e3b565b945050602085013567ffffffffffffffff811115610fdf57610fde610e15565b5b610feb87828801610f68565b935050604085013567ffffffffffffffff81111561100c5761100b610e15565b5b61101887828801610f68565b925050606085013567ffffffffffffffff81111561103957611038610e15565b5b61104587828801610f68565b91505092959194509250565b6000819050919050565b61106481611051565b811461106f57600080fd5b50565b6000813590506110818161105b565b92915050565b600073ffffffffffffffffffffffffffffffffffffffff82169050919050565b60006110b282611087565b9050919050565b6110c2816110a7565b81146110cd57600080fd5b50565b6000813590506110df816110b9565b92915050565b600080604083850312156110fc576110fb610e10565b5b600061110a85828601611072565b925050602061111b858286016110d0565b9150509250929050565b60006020828403121561113b5761113a610e10565b5b600061114984828501610e3b565b91505092915050565b61115b816110a7565b82525050565b61116a81610e1a565b82525050565b600081519050919050565b600082825260208201905092915050565b60005b838110156111aa57808201518184015260208101905061118f565b60008484015250505050565b60006111c182611170565b6111cb818561117b565b93506111db81856020860161118c565b6111e481610e5a565b840191505092915050565b6111f881611051565b82525050565b600060c0830160008301516112166000860182611152565b5060208301516112296020860182611161565b506040830151848203604086015261124182826111b6565b9150506060830151848203606086015261125b82826111b6565b9150506080830151848203608086015261127582826111b6565b91505060a083015161128a60a08601826111ef565b508091505092915050565b600060208201905081810360008301526112af81846111fe565b905092915050565b6000602082840312156112cd576112cc610e10565b5b60006112db848285016110d0565b91505092915050565b600081519050919050565b600082825260208201905092915050565b6000819050602082019050919050565b600060c0830160008301516113286000860182611152565b50602083015161133b6020860182611161565b506040830151848203604086015261135382826111b6565b9150506060830151848203606086015261136d82826111b6565b9150506080830151848203608086015261138782826111b6565b91505060a083015161139c60a08601826111ef565b508091505092915050565b60006113b38383611310565b905092915050565b6000602082019050919050565b60006113d3826112e4565b6113dd81856112ef565b9350836020820285016113ef85611300565b8060005b8581101561142b578484038952815161140c85826113a7565b9450611417836113bb565b925060208a019950506001810190506113f3565b50829750879550505050505092915050565b6000602082019050818103600083015261145781846113c8565b905092915050565b600082825260208201905092915050565b7f486173682063616e6e6f7420626520656d707479000000000000000000000000600082015250565b60006114a660148361145f565b91506114b182611470565b602082019050919050565b600060208201905081810360008301526114d581611499565b9050919050565b7f417574686f72206e616d652063616e6e6f7420626520656d707479207374726960008201527f6e67000000000000000000000000000000000000000000000000000000000000602082015250565b600061153860228361145f565b9150611543826114dc565b604082019050919050565b600060208201905081810360008301526115678161152b565b9050919050565b7f417574686f7220652d6d61696c2063616e6e6f7420626520656d70747920737460008201527f72696e6700000000000000000000000000000000000000000000000000000000602082015250565b60006115ca60248361145f565b91506115d58261156e565b604082019050919050565b600060208201905081810360008301526115f9816115bd565b9050919050565b7f4e487b7100000000000000000000000000000000000000000000000000000000600052602260045260246000fd5b6000600282049050600182168061164757607f821691505b60208210810361165a57611659611600565b5b50919050565b60008190508160005260206000209050919050565b60006020601f8301049050919050565b600082821b905092915050565b6000600883026116c27fffffffffffffffffffffffffffffffffffffffffffffffffffffffffffffffff82611685565b6116cc8683611685565b95508019841693508086168417925050509392505050565b6000819050919050565b60006117096117046116ff84611051565b6116e4565b611051565b9050919050565b6000819050919050565b611723836116ee565b61173761172f82611710565b848454611692565b825550505050565b600090565b61174c61173f565b61175781848461171a565b505050565b5b8181101561177b57611770600082611744565b60018101905061175d565b5050565b601f8211156117c05761179181611660565b61179a84611675565b810160208510156117a9578190505b6117bd6117b585611675565b83018261175c565b50505b505050565b600082821c905092915050565b60006117e3600019846008026117c5565b1980831691505092915050565b60006117fc83836117d2565b9150826002028217905092915050565b61181582611170565b67ffffffffffffffff81111561182e5761182d610e6b565b5b611838825461162f565b61184382828561177f565b600060209050601f8311600181146118765760008415611864578287015190505b61186e85826117f0565b8655506118d6565b601f19841661188486611660565b60005b828110156118ac57848901518255600182019150602085019450602081019050611887565b868310156118c957848901516118c5601f8916826117d2565b8355505b6001600288020188555050505b505050505050565b6118e781610e1a565b82525050565b6118f681611051565b82525050565b600060408201905061191160008301856118de565b61191e60208301846118ed565b9392505050565b7f496e76616c6964207265636f726420696e646578000000000000000000000000600082015250565b600061195b60148361145f565b915061196682611925565b602082019050919050565b6000602082019050818103600083015261198a8161194e565b9050919050565b7f4e487b7100000000000000000000000000000000000000000000000000000000600052603260045260246000fd5b7f4f6e6c79207468652063757272656e74206f776e65722063616e207472616e7360008201527f666572206f776e65727368697000000000000000000000000000000000000000602082015250565b6000611a1c602d8361145f565b9150611a27826119c0565b604082019050919050565b60006020820190508181036000830152611a4b81611a0f565b9050919050565b7f4e6577206f776e657220616464726573732063616e6e6f74206265207a65726f600082015250565b6000611a8860208361145f565b9150611a9382611a52565b602082019050919050565b60006020820190508181036000830152611ab781611a7b565b9050919050565b7f4e487b7100000000000000000000000000000000000000000000000000000000600052601160045260246000fd5b6000611af882611051565b9150611b0383611051565b9250828203905081811115611b1b57611b1a611abe565b5b92915050565b7f4e487b7100000000000000000000000000000000000000000000000000000000600052603160045260246000fd5b6000611b5b82611051565b91507fffffffffffffffffffffffffffffffffffffffffffffffffffffffffffffffff8203611b8d57611b8c611abe565b5b600182019050919050565b6000602082019050611bad60008301846118ed565b92915050565b7f5265636f7264206e6f7420666f756e6420666f722074686520676976656e206860008201527f6173680000000000000000000000000000000000000000000000000000000000602082015250565b6000611c0f60238361145f565b9150611c1a82611bb3565b604082019050919050565b60006020820190508181036000830152611c3e81611c02565b905091905056fea2646970667358221220a688a99a32af2e8c25e0c3d8a5a74b8411cfc2a37552ff2fc93aa2073f63111e64736f6c63430008130033",
    "linkReferences": {},
    "deployedLinkReferences": {}
}